:100000000C942A000C9447000C9447000C94470071
:100010000C9447000C9447000C9447000C94470044
:100020000C9447000C9447000C9447000C94470034
:100030000C9447000C9447000C9447000C94470024
:100040000C9447000C9447000C9447000C94470014
:100050000C94470011241FBECFE5D4E0DEBFCDBF16
:1000600010E0A0E6B0E0E6EBF4E002C005900D92EF
:10007000A638B107D9F710E0A6E8B0E001C01D929C
:10008000A239B107E1F70E9400020C9459020C94C6
:10009000000087B3876F87BB88B3887088BB0895DB
:1000A0008FE99FE00197F1F700C00000C098C19868
:1000B00080E388BBC29AEFE1FEE43197F1F700C01C
:1000C0000000C298EFE9FFE03197F1F700C00000AF
:1000D000C098C19888BBC29AEFE1FEE43197F1F76E
:1000E00000C00000C298EFE9FFE03197F1F700C0CF
:1000F0000000C098C19888BBC29A8FE19EE4019726
:10010000F1F700C00000C298EFE9FFE03197F1F786
:1001100000C00000C098C19880E288BBC29A8FE1FD
:100120009EE40197F1F700C00000C298089598B3CB
:100130009F7098BB98B3282F207F922B98BBC098B4
:10014000C198C29AEFE1FEE43197F1F700C00000D8
:10015000C29898B39F7098BB98B38295807F892B83
:1001600088BBC098C198C29A8FE19EE40197F1F7CD
:1001700000C00000C29808950E9450008FE99FE0DF
:100180000197F1F700C0000088E20E94970081E02B
:100190000E94970086E00E9497008EE00E949700E0
:1001A00080E80E949700089580E80E9497000895D3
:1001B000823079F0833018F48130C9F405C083307F
:1001C00069F08430A1F40FC0862F81580E949700F7
:1001D0000895862F81540E9497000895862F8D568A
:1001E0000E9497000895862F8D520E9497000895CF
:1001F00081E00E9497000895CF93C42F0E94D800F9
:1002000088B38F7088BB88B39C2F907F892B88BB65
:10021000C09AC198C29A8FE19EE40197F1F700C09D
:100220000000C29888B38F7088BB88B3C295C07F26
:10023000C82BC8BBC09AC198C29A8FE19EE40197AF
:10024000F1F700C00000C298CF9108950F931F935B
:10025000CF93DF93D82FC62FFA014081442369F052
:100260008F010F5F1F4F8D2F6C2F0E94FC00CF5FFF
:10027000F80141918F014423B1F7DF91CF911F9194
:100280000F910895EF92FF920F931F93CF93DF93F7
:10029000D82FC62F7A0189010E94D800FF205CF474
:1002A000F094E194F108F3948D2F6C2F40E650E028
:1002B0000E942601CF5FDD2311F0CC2319F40E94A8
:1002C000D40004C08D2F6C2F0E94D800053011057A
:1002D00091F4C70160E177E20E944602AB01405D04
:1002E0005F4F50938700409386008D2F6C2F0E94A4
:1002F000FC00CF5F03C004301105E1F4C70168EED4
:1003000073E00E944602CB017093890060938800DD
:100310006AE070E00E943202AC01405D5F4F509392
:100320009100409390008D2F6C2F0E94FC00CF5FB6
:1003300081E001C080E00330110511F08130D9F473
:10034000C70164E670E00E944602CB017093890009
:10035000609388006AE070E00E943202AC01405D68
:100360005F4F50938D0040938C008D2F6C2F0E9417
:10037000FC00CF5F81E00230110511F08130D9F42B
:100380002AE030E0C701B9010E944602CB01709318
:10039000890060938800B9010E943202AC01405D7F
:1003A0005F4F50938B0040938A008D2F6C2F0E94DB
:1003B000FC00CF5F81E00130110511F0813089F43C
:1003C000C7016AE070E00E944602AC01405D5F4FE9
:1003D00050938F0040938E008D2F6C2F0E94FC0055
:1003E000CF5F063011052CF08D2F6C2F45E40E9455
:1003F000FC00DF91CF911F910F91FF90EF90089536
:100400000F931F93CF93DF930E9449000E94BC007B
:10041000C2E6D0E081E061E0AE010E94260102E781
:1004200010E082E061E0A8010E9426018FEF91EECA
:10043000A4E081509040A040E1F700C000000E947D
:10044000F80081E061E0AE010E94260182E061E0F7
:10045000A8010E94260180E090E0DF91CF911F91DA
:100460000F910895AA1BBB1B51E107C0AA1FBB1F18
:10047000A617B70710F0A61BB70B881F991F5A9530
:10048000A9F780959095BC01CD01089597FB092EA1
:1004900007260AD077FD04D0E5DF06D000201AF445
:1004A000709561957F4F0895F6F7909581959F4FD0
:0604B0000895F894FFCF4F
:1004B6002D0020204B756E616C20536861726D6152
:1004C60020004D6176756E6F20546563686E6F6CA3
:0604D6006F676965730009
:00000001FF
